{
  "_format": "hh-sol-artifact-1",
  "contractName": "WavePortal",
  "sourceName": "contracts/WavePortal.sol",
  "abi": [
    {
      "inputs": [],
      "stateMutability": "nonpayable",
      "type": "constructor"
    },
    {
      "inputs": [],
      "name": "getTotalWaves",
      "outputs": [
        {
          "internalType": "uint256",
          "name": "",
          "type": "uint256"
        }
      ],
      "stateMutability": "view",
      "type": "function"
    },
    {
      "inputs": [],
      "name": "sendWave",
      "outputs": [],
      "stateMutability": "nonpayable",
      "type": "function"
    }
  ],
  "bytecode": "0x608060405234801561001057600080fd5b5061003c6040518060600160405280602581526020016108d26025913961004160201b6101dd1760201c565b6101c4565b6100dd816040516024016100559190610142565b6040516020818303038152906040527f41304fac000000000000000000000000000000000000000000000000000000007bffffffffffffffffffffffffffffffffffffffffffffffffffffffff19166020820180517bffffffffffffffffffffffffffffffffffffffffffffffffffffffff83818316178352505050506100e060201b60201c565b50565b60008151905060006a636f6e736f6c652e6c6f679050602083016000808483855afa5050505050565b600061011482610164565b61011e818561016f565b935061012e818560208601610180565b610137816101b3565b840191505092915050565b6000602082019050818103600083015261015c8184610109565b905092915050565b600081519050919050565b600082825260208201905092915050565b60005b8381101561019e578082015181840152602081019050610183565b838111156101ad576000848401525b50505050565b6000601f19601f8301169050919050565b6106ff806101d36000396000f3fe608060405234801561001057600080fd5b50600436106100365760003560e01c80639a2cdc081461003b578063a2b032e314610059575b600080fd5b610043610063565b604051610050919061058d565b60405180910390f35b6100616100ae565b005b60006100a66040518060400160405280601781526020017f5765206861766520256420746f74616c20776176657321000000000000000000815250600054610276565b600054905090565b60016000808282546100c091906105c4565b925050819055506101066040518060400160405280600d81526020017f257320686173207761766564210000000000000000000000000000000000000081525033610312565b60018060003373ffffffffffffffffffffffffffffffffffffffff1673ffffffffffffffffffffffffffffffffffffffff168152602001908152602001600020600082825461015591906105c4565b925050819055506101db6040518060400160405280601c81526020017f4e756d626572206f66207761766573206f66202561202573203e3e200000000081525033600160003373ffffffffffffffffffffffffffffffffffffffff1673ffffffffffffffffffffffffffffffffffffffff168152602001908152602001600020546103ae565b565b610273816040516024016101f191906104cd565b6040516020818303038152906040527f41304fac000000000000000000000000000000000000000000000000000000007bffffffffffffffffffffffffffffffffffffffffffffffffffffffff19166020820180517bffffffffffffffffffffffffffffffffffffffffffffffffffffffff838183161783525050505061044d565b50565b61030e828260405160240161028c92919061055d565b6040516020818303038152906040527f9710a9d0000000000000000000000000000000000000000000000000000000007bffffffffffffffffffffffffffffffffffffffffffffffffffffffff19166020820180517bffffffffffffffffffffffffffffffffffffffffffffffffffffffff838183161783525050505061044d565b5050565b6103aa82826040516024016103289291906104ef565b6040516020818303038152906040527f319af333000000000000000000000000000000000000000000000000000000007bffffffffffffffffffffffffffffffffffffffffffffffffffffffff19166020820180517bffffffffffffffffffffffffffffffffffffffffffffffffffffffff838183161783525050505061044d565b5050565b6104488383836040516024016103c69392919061051f565b6040516020818303038152906040527f07c81217000000000000000000000000000000000000000000000000000000007bffffffffffffffffffffffffffffffffffffffffffffffffffffffff19166020820180517bffffffffffffffffffffffffffffffffffffffffffffffffffffffff838183161783525050505061044d565b505050565b60008151905060006a636f6e736f6c652e6c6f679050602083016000808483855afa5050505050565b61047f8161061a565b82525050565b6000610490826105a8565b61049a81856105b3565b93506104aa818560208601610656565b6104b3816106b8565b840191505092915050565b6104c78161064c565b82525050565b600060208201905081810360008301526104e78184610485565b905092915050565b600060408201905081810360008301526105098185610485565b90506105186020830184610476565b9392505050565b600060608201905081810360008301526105398186610485565b90506105486020830185610476565b61055560408301846104be565b949350505050565b600060408201905081810360008301526105778185610485565b905061058660208301846104be565b9392505050565b60006020820190506105a260008301846104be565b92915050565b600081519050919050565b600082825260208201905092915050565b60006105cf8261064c565b91506105da8361064c565b9250827fffffffffffffffffffffffffffffffffffffffffffffffffffffffffffffffff0382111561060f5761060e610689565b5b828201905092915050565b60006106258261062c565b9050919050565b600073ffffffffffffffffffffffffffffffffffffffff82169050919050565b6000819050919050565b60005b83811015610674578082015181840152602081019050610659565b83811115610683576000848401525b50505050565b7f4e487b7100000000000000000000000000000000000000000000000000000000600052601160045260246000fd5b6000601f19601f830116905091905056fea26469706673582212208dc99d34b0bea4e827d12a0e6c730f399e3e5ac7d9756c8c2db32fba8558400164736f6c63430008040033596f20796f2c204920616d206120636f6e747261637420616e64204920616d20736d617274",
  "linkReferences": {},
  "deployedLinkReferences": {}
}