{
  "_format": "hh-sol-artifact-1",
  "contractName": "LuckyNumber",
  "sourceName": "solidity/contracts/LuckyNumber.sol",
  "abi": [
    {
      "inputs": [],
      "stateMutability": "payable",
      "type": "constructor"
    },
    {
      "anonymous": false,
      "inputs": [
        {
          "indexed": false,
          "internalType": "bool",
          "name": "isWinner",
          "type": "bool"
        }
      ],
      "name": "LotteryEvent",
      "type": "event"
    },
    {
      "inputs": [],
      "name": "getLatestNumbers",
      "outputs": [
        {
          "internalType": "uint256[]",
          "name": "",
          "type": "uint256[]"
        }
      ],
      "stateMutability": "view",
      "type": "function"
    },
    {
      "inputs": [],
      "name": "getPrize",
      "outputs": [
        {
          "internalType": "uint256",
          "name": "",
          "type": "uint256"
        }
      ],
      "stateMutability": "view",
      "type": "function"
    },
    {
      "inputs": [
        {
          "internalType": "uint256",
          "name": "_number",
          "type": "uint256"
        }
      ],
      "name": "playLottery",
      "outputs": [],
      "stateMutability": "payable",
      "type": "function"
    }
  ],
  "bytecode": "0x6080604052655af3107a40006001556021600081905550620000646040518060400160405280601781526020017f54686520736563726574206e756d6265722069732025730000000000000000008152506000546200006a60201b620004351760201c565b6200022c565b6200010c8282604051602401620000839291906200018b565b6040516020818303038152906040527f9710a9d0000000000000000000000000000000000000000000000000000000007bffffffffffffffffffffffffffffffffffffffffffffffffffffffff19166020820180517bffffffffffffffffffffffffffffffffffffffffffffffffffffffff83818316178352505050506200011060201b60201c565b5050565b60008151905060006a636f6e736f6c652e6c6f679050602083016000808483855afa5050505050565b60006200014682620001bf565b620001528185620001ca565b935062000164818560208601620001e5565b6200016f816200021b565b840191505092915050565b6200018581620001db565b82525050565b60006040820190508181036000830152620001a7818562000139565b9050620001b860208301846200017a565b9392505050565b600081519050919050565b600082825260208201905092915050565b6000819050919050565b60005b8381101562000205578082015181840152602081019050620001e8565b8381111562000215576000848401525b50505050565b6000601f19601f8301169050919050565b610bbe806200023c6000396000f3fe6080604052600436106100345760003560e01c806303ddcab814610039578063c34f6b0d14610055578063cb6ab99914610080575b600080fd5b610053600480360381019061004e9190610679565b6100ab565b005b34801561006157600080fd5b5061006a6103bd565b60405161007791906108fd565b60405180910390f35b34801561008c57600080fd5b506100956103dd565b6040516100a2919061082e565b60405180910390f35b6100ea6040518060400160405280601381526020017f43757272656e742062616c616e6365206973200000000000000000000000000081525047610435565b60015434101561012f576040517f08c379a0000000000000000000000000000000000000000000000000000000008152600401610126906108bd565b60405180910390fd5b60005481146101af576101766040518060400160405280600681526020017f4f686868686800000000000000000000000000000000000000000000000000008152506104d1565b7f1f00a824ca850def568468d1fd563059599c7e973d9fa0ff6859ee0896d1631160006040516101a69190610850565b60405180910390a15b600054811415610391577f1f00a824ca850def568468d1fd563059599c7e973d9fa0ff6859ee0896d1631160016040516101e99190610850565b60405180910390a161022f6040518060400160405280600c81526020017f57494e4e454545455252525200000000000000000000000000000000000000008152506104d1565b60003373ffffffffffffffffffffffffffffffffffffffff16606460504761025791906109a9565b6102619190610978565b60405161026d906107fe565b60006040518083038185875af1925050503d80600081146102aa576040519150601f19603f3d011682016040523d82523d6000602084013e6102af565b606091505b50509050806102f3576040517f08c379a00000000000000000000000000000000000000000000000000000000081526004016102ea906108dd565b60405180910390fd5b6102fb61056a565b6000819055506103406040518060400160405280601581526020017f42616c616e63652061667465722077696e20697320000000000000000000000081525047610435565b6103816040518060400160405280601781526020017f54686520736563726574206e756d626572206973202573000000000000000000815250600054610435565b6002600061038f9190610626565b505b600281908060018154018082558091505060019003906000526020600020016000909190919091505550565b600060646050476103ce91906109a9565b6103d89190610978565b905090565b6060600280548060200260200160405190810160405280929190818152602001828054801561042b57602002820191906000526020600020905b815481526020019060010190808311610417575b5050505050905090565b6104cd828260405160240161044b92919061088d565b6040516020818303038152906040527f9710a9d0000000000000000000000000000000000000000000000000000000007bffffffffffffffffffffffffffffffffffffffffffffffffffffffff19166020820180517bffffffffffffffffffffffffffffffffffffffffffffffffffffffff83818316178352505050506105fd565b5050565b610567816040516024016104e5919061086b565b6040516020818303038152906040527f41304fac000000000000000000000000000000000000000000000000000000007bffffffffffffffffffffffffffffffffffffffffffffffffffffffff19166020820180517bffffffffffffffffffffffffffffffffffffffffffffffffffffffff83818316178352505050506105fd565b50565b6000804260405160200161057e9190610813565b6040516020818303038152906040528051906020012060001c90506000446040516020016105ac9190610813565b6040516020818303038152906040528051906020012060001c9050606480826105d59190610a56565b6064846105e29190610a56565b6105ec91906109a9565b6105f69190610a56565b9250505090565b60008151905060006a636f6e736f6c652e6c6f679050602083016000808483855afa5050505050565b50805460008255906000526020600020908101906106449190610647565b50565b5b80821115610660576000816000905550600101610648565b5090565b60008135905061067381610b71565b92915050565b60006020828403121561068b57600080fd5b600061069984828501610664565b91505092915050565b60006106ae83836107c9565b60208301905092915050565b60006106c582610928565b6106cf818561094b565b93506106da83610918565b8060005b8381101561070b5781516106f288826106a2565b97506106fd8361093e565b9250506001810190506106de565b5085935050505092915050565b61072181610a03565b82525050565b600061073282610933565b61073c8185610967565b935061074c818560208601610a19565b61075581610ae5565b840191505092915050565b600061076d601c83610967565b915061077882610af6565b602082019050919050565b600061079060008361095c565b915061079b82610b1f565b600082019050919050565b60006107b3602683610967565b91506107be82610b22565b604082019050919050565b6107d281610a0f565b82525050565b6107e181610a0f565b82525050565b6107f86107f382610a0f565b610a4c565b82525050565b600061080982610783565b9150819050919050565b600061081f82846107e7565b60208201915081905092915050565b6000602082019050818103600083015261084881846106ba565b905092915050565b60006020820190506108656000830184610718565b92915050565b600060208201905081810360008301526108858184610727565b905092915050565b600060408201905081810360008301526108a78185610727565b90506108b660208301846107d8565b9392505050565b600060208201905081810360008301526108d681610760565b9050919050565b600060208201905081810360008301526108f6816107a6565b9050919050565b600060208201905061091260008301846107d8565b92915050565b6000819050602082019050919050565b600081519050919050565b600081519050919050565b6000602082019050919050565b600082825260208201905092915050565b600081905092915050565b600082825260208201905092915050565b600061098382610a0f565b915061098e83610a0f565b92508261099e5761099d610ab6565b5b828204905092915050565b60006109b482610a0f565b91506109bf83610a0f565b9250817fffffffffffffffffffffffffffffffffffffffffffffffffffffffffffffffff04831182151516156109f8576109f7610a87565b5b828202905092915050565b60008115159050919050565b6000819050919050565b60005b83811015610a37578082015181840152602081019050610a1c565b83811115610a46576000848401525b50505050565b6000819050919050565b6000610a6182610a0f565b9150610a6c83610a0f565b925082610a7c57610a7b610ab6565b5b828206905092915050565b7f4e487b7100000000000000000000000000000000000000000000000000000000600052601160045260246000fd5b7f4e487b7100000000000000000000000000000000000000000000000000000000600052601260045260246000fd5b6000601f19601f8301169050919050565b7f4d696e696d756d2076616c756520697320302e30303031204554482100000000600082015250565b50565b7f4661696c656420746f2073656e6420746865207072697a6520746f207468652060008201527f77696e6e65720000000000000000000000000000000000000000000000000000602082015250565b610b7a81610a0f565b8114610b8557600080fd5b5056fea264697066735822122081f1679e34ecbea93b3283f79b8876eea348a933d0849a408aec5da73b54fbc564736f6c63430008040033",
  "linkReferences": {},
  "deployedLinkReferences": {}
}