{
  "_format": "hh-sol-artifact-1",
  "contractName": "LuckyNumber",
  "sourceName": "solidity/contracts/LuckyNumber.sol",
  "abi": [
    {
      "inputs": [],
      "stateMutability": "payable",
      "type": "constructor"
    },
    {
      "anonymous": false,
      "inputs": [
        {
          "indexed": false,
          "internalType": "bool",
          "name": "isWinner",
          "type": "bool"
        }
      ],
      "name": "LotteryEvent",
      "type": "event"
    },
    {
      "inputs": [],
      "name": "getLatestNumbers",
      "outputs": [
        {
          "internalType": "uint256[]",
          "name": "",
          "type": "uint256[]"
        }
      ],
      "stateMutability": "view",
      "type": "function"
    },
    {
      "inputs": [],
      "name": "getPrize",
      "outputs": [
        {
          "internalType": "uint256",
          "name": "",
          "type": "uint256"
        }
      ],
      "stateMutability": "view",
      "type": "function"
    },
    {
      "inputs": [
        {
          "internalType": "uint256",
          "name": "_number",
          "type": "uint256"
        }
      ],
      "name": "playLottery",
      "outputs": [],
      "stateMutability": "payable",
      "type": "function"
    }
  ],
  "bytecode": "0x6080604052655af3107a40006001556021600081905550620000646040518060400160405280601781526020017f54686520736563726574206e756d6265722069732025730000000000000000008152506000546200006a60201b6200040f1760201c565b6200022c565b6200010c8282604051602401620000839291906200018b565b6040516020818303038152906040527f9710a9d0000000000000000000000000000000000000000000000000000000007bffffffffffffffffffffffffffffffffffffffffffffffffffffffff19166020820180517bffffffffffffffffffffffffffffffffffffffffffffffffffffffff83818316178352505050506200011060201b60201c565b5050565b60008151905060006a636f6e736f6c652e6c6f679050602083016000808483855afa5050505050565b60006200014682620001bf565b620001528185620001ca565b935062000164818560208601620001e5565b6200016f816200021b565b840191505092915050565b6200018581620001db565b82525050565b60006040820190508181036000830152620001a7818562000139565b9050620001b860208301846200017a565b9392505050565b600081519050919050565b600082825260208201905092915050565b6000819050919050565b60005b8381101562000205578082015181840152602081019050620001e8565b8381111562000215576000848401525b50505050565b6000601f19601f8301169050919050565b610b5a806200023c6000396000f3fe6080604052600436106100345760003560e01c806303ddcab814610039578063c34f6b0d14610055578063cb6ab99914610080575b600080fd5b610053600480360381019061004e9190610615565b6100ab565b005b34801561006157600080fd5b5061006a6103af565b6040516100779190610899565b60405180910390f35b34801561008c57600080fd5b506100956103b7565b6040516100a291906107ca565b60405180910390f35b6100ea6040518060400160405280601381526020017f43757272656e742062616c616e636520697320000000000000000000000000008152504761040f565b60015434101561012f576040517f08c379a000000000000000000000000000000000000000000000000000000000815260040161012690610859565b60405180910390fd5b60005481146101af576101766040518060400160405280600681526020017f4f686868686800000000000000000000000000000000000000000000000000008152506104ab565b7f1f00a824ca850def568468d1fd563059599c7e973d9fa0ff6859ee0896d1631160006040516101a691906107ec565b60405180910390a15b600054811415610383577f1f00a824ca850def568468d1fd563059599c7e973d9fa0ff6859ee0896d1631160016040516101e991906107ec565b60405180910390a161022f6040518060400160405280600c81526020017f57494e4e454545455252525200000000000000000000000000000000000000008152506104ab565b60003373ffffffffffffffffffffffffffffffffffffffff1660646050476102579190610945565b6102619190610914565b60405161026d9061079a565b60006040518083038185875af1925050503d80600081146102aa576040519150601f19603f3d011682016040523d82523d6000602084013e6102af565b606091505b50509050806102f3576040517f08c379a00000000000000000000000000000000000000000000000000000000081526004016102ea90610879565b60405180910390fd5b6102fb610544565b6000819055506103406040518060400160405280601581526020017f42616c616e63652061667465722077696e2069732000000000000000000000008152504761040f565b6103816040518060400160405280601781526020017f54686520736563726574206e756d62657220697320257300000000000000000081525060005461040f565b505b600281908060018154018082558091505060019003906000526020600020016000909190919091505550565b600047905090565b6060600280548060200260200160405190810160405280929190818152602001828054801561040557602002820191906000526020600020905b8154815260200190600101908083116103f1575b5050505050905090565b6104a78282604051602401610425929190610829565b6040516020818303038152906040527f9710a9d0000000000000000000000000000000000000000000000000000000007bffffffffffffffffffffffffffffffffffffffffffffffffffffffff19166020820180517bffffffffffffffffffffffffffffffffffffffffffffffffffffffff83818316178352505050506105d7565b5050565b610541816040516024016104bf9190610807565b6040516020818303038152906040527f41304fac000000000000000000000000000000000000000000000000000000007bffffffffffffffffffffffffffffffffffffffffffffffffffffffff19166020820180517bffffffffffffffffffffffffffffffffffffffffffffffffffffffff83818316178352505050506105d7565b50565b6000804260405160200161055891906107af565b6040516020818303038152906040528051906020012060001c905060004460405160200161058691906107af565b6040516020818303038152906040528051906020012060001c9050606480826105af91906109f2565b6064846105bc91906109f2565b6105c69190610945565b6105d091906109f2565b9250505090565b60008151905060006a636f6e736f6c652e6c6f679050602083016000808483855afa5050505050565b60008135905061060f81610b0d565b92915050565b60006020828403121561062757600080fd5b600061063584828501610600565b91505092915050565b600061064a8383610765565b60208301905092915050565b6000610661826108c4565b61066b81856108e7565b9350610676836108b4565b8060005b838110156106a757815161068e888261063e565b9750610699836108da565b92505060018101905061067a565b5085935050505092915050565b6106bd8161099f565b82525050565b60006106ce826108cf565b6106d88185610903565b93506106e88185602086016109b5565b6106f181610a81565b840191505092915050565b6000610709601c83610903565b915061071482610a92565b602082019050919050565b600061072c6000836108f8565b915061073782610abb565b600082019050919050565b600061074f602683610903565b915061075a82610abe565b604082019050919050565b61076e816109ab565b82525050565b61077d816109ab565b82525050565b61079461078f826109ab565b6109e8565b82525050565b60006107a58261071f565b9150819050919050565b60006107bb8284610783565b60208201915081905092915050565b600060208201905081810360008301526107e48184610656565b905092915050565b600060208201905061080160008301846106b4565b92915050565b6000602082019050818103600083015261082181846106c3565b905092915050565b6000604082019050818103600083015261084381856106c3565b90506108526020830184610774565b9392505050565b60006020820190508181036000830152610872816106fc565b9050919050565b6000602082019050818103600083015261089281610742565b9050919050565b60006020820190506108ae6000830184610774565b92915050565b6000819050602082019050919050565b600081519050919050565b600081519050919050565b6000602082019050919050565b600082825260208201905092915050565b600081905092915050565b600082825260208201905092915050565b600061091f826109ab565b915061092a836109ab565b92508261093a57610939610a52565b5b828204905092915050565b6000610950826109ab565b915061095b836109ab565b9250817fffffffffffffffffffffffffffffffffffffffffffffffffffffffffffffffff048311821515161561099457610993610a23565b5b828202905092915050565b60008115159050919050565b6000819050919050565b60005b838110156109d35780820151818401526020810190506109b8565b838111156109e2576000848401525b50505050565b6000819050919050565b60006109fd826109ab565b9150610a08836109ab565b925082610a1857610a17610a52565b5b828206905092915050565b7f4e487b7100000000000000000000000000000000000000000000000000000000600052601160045260246000fd5b7f4e487b7100000000000000000000000000000000000000000000000000000000600052601260045260246000fd5b6000601f19601f8301169050919050565b7f4d696e696d756d2076616c756520697320302e30303031204554482100000000600082015250565b50565b7f4661696c656420746f2073656e6420746865207072697a6520746f207468652060008201527f77696e6e65720000000000000000000000000000000000000000000000000000602082015250565b610b16816109ab565b8114610b2157600080fd5b5056fea26469706673582212205d1f0c5c182d860a7bba57f17071e71d26698c6018374c4627fa5f19d535db8164736f6c63430008040033",
  "linkReferences": {},
  "deployedLinkReferences": {}
}