{
  "_format": "hh-sol-artifact-1",
  "contractName": "WavePortal",
  "sourceName": "solidity/contracts/WavePortal.sol",
  "abi": [
    {
      "inputs": [],
      "stateMutability": "nonpayable",
      "type": "constructor"
    },
    {
      "inputs": [],
      "name": "getTotalWaves",
      "outputs": [
        {
          "internalType": "uint256",
          "name": "",
          "type": "uint256"
        }
      ],
      "stateMutability": "view",
      "type": "function"
    },
    {
      "inputs": [
        {
          "internalType": "string",
          "name": "_newMessage",
          "type": "string"
        }
      ],
      "name": "sendWave",
      "outputs": [],
      "stateMutability": "nonpayable",
      "type": "function"
    }
  ],
  "bytecode": "0x608060405234801561001057600080fd5b5061003d60405180606001604052806025815260200162000c696025913961004260201b6103001760201c565b6101c5565b6100de816040516024016100569190610143565b6040516020818303038152906040527f41304fac000000000000000000000000000000000000000000000000000000007bffffffffffffffffffffffffffffffffffffffffffffffffffffffff19166020820180517bffffffffffffffffffffffffffffffffffffffffffffffffffffffff83818316178352505050506100e160201b60201c565b50565b60008151905060006a636f6e736f6c652e6c6f679050602083016000808483855afa5050505050565b600061011582610165565b61011f8185610170565b935061012f818560208601610181565b610138816101b4565b840191505092915050565b6000602082019050818103600083015261015d818461010a565b905092915050565b600081519050919050565b600082825260208201905092915050565b60005b8381101561019f578082015181840152602081019050610184565b838111156101ae576000848401525b50505050565b6000601f19601f8301169050919050565b610a9480620001d56000396000f3fe608060405234801561001057600080fd5b50600436106100365760003560e01c806337f0a2f11461003b5780639a2cdc0814610057575b600080fd5b610055600480360381019061005091906106a4565b610075565b005b61005f6102b5565b60405161006c91906107fc565b60405180910390f35b60016000808282546100879190610889565b925050819055506100cd6040518060400160405280600d81526020017f257320686173207761766564210000000000000000000000000000000000000081525033610399565b60018060003373ffffffffffffffffffffffffffffffffffffffff1673ffffffffffffffffffffffffffffffffffffffff168152602001908152602001600020600082825461011c9190610889565b925050819055506101a26040518060400160405280601c81526020017f4e756d626572206f66207761766573206f66202561202573203e3e200000000081525033600160003373ffffffffffffffffffffffffffffffffffffffff1673ffffffffffffffffffffffffffffffffffffffff16815260200190815260200160002054610435565b600060405180606001604052808381526020013373ffffffffffffffffffffffffffffffffffffffff1681526020014281525090506002819080600181540180825580915050600190039060005260206000209060030201600090919091909150600082015181600001908051906020019061021f929190610599565b5060208201518160010160006101000a81548173ffffffffffffffffffffffffffffffffffffffff021916908373ffffffffffffffffffffffffffffffffffffffff1602179055506040820151816002015550506102b16040518060400160405280601381526020017f416c6c4d65737361676573207570646174656400000000000000000000000000815250610300565b5050565b60006102f86040518060400160405280601781526020017f5765206861766520256420746f74616c207761766573210000000000000000008152506000546104d4565b600054905090565b61039681604051602401610314919061073c565b6040516020818303038152906040527f41304fac000000000000000000000000000000000000000000000000000000007bffffffffffffffffffffffffffffffffffffffffffffffffffffffff19166020820180517bffffffffffffffffffffffffffffffffffffffffffffffffffffffff8381831617835250505050610570565b50565b61043182826040516024016103af92919061075e565b6040516020818303038152906040527f319af333000000000000000000000000000000000000000000000000000000007bffffffffffffffffffffffffffffffffffffffffffffffffffffffff19166020820180517bffffffffffffffffffffffffffffffffffffffffffffffffffffffff8381831617835250505050610570565b5050565b6104cf83838360405160240161044d9392919061078e565b6040516020818303038152906040527f07c81217000000000000000000000000000000000000000000000000000000007bffffffffffffffffffffffffffffffffffffffffffffffffffffffff19166020820180517bffffffffffffffffffffffffffffffffffffffffffffffffffffffff8381831617835250505050610570565b505050565b61056c82826040516024016104ea9291906107cc565b6040516020818303038152906040527f9710a9d0000000000000000000000000000000000000000000000000000000007bffffffffffffffffffffffffffffffffffffffffffffffffffffffff19166020820180517bffffffffffffffffffffffffffffffffffffffffffffffffffffffff8381831617835250505050610570565b5050565b60008151905060006a636f6e736f6c652e6c6f679050602083016000808483855afa5050505050565b8280546105a59061095d565b90600052602060002090601f0160209004810192826105c7576000855561060e565b82601f106105e057805160ff191683800117855561060e565b8280016001018555821561060e579182015b8281111561060d5782518255916020019190600101906105f2565b5b50905061061b919061061f565b5090565b5b80821115610638576000816000905550600101610620565b5090565b600061064f61064a8461083c565b610817565b90508281526020810184848401111561066757600080fd5b61067284828561091b565b509392505050565b600082601f83011261068b57600080fd5b813561069b84826020860161063c565b91505092915050565b6000602082840312156106b657600080fd5b600082013567ffffffffffffffff8111156106d057600080fd5b6106dc8482850161067a565b91505092915050565b6106ee816108df565b82525050565b60006106ff8261086d565b6107098185610878565b935061071981856020860161092a565b61072281610a4d565b840191505092915050565b61073681610911565b82525050565b6000602082019050818103600083015261075681846106f4565b905092915050565b6000604082019050818103600083015261077881856106f4565b905061078760208301846106e5565b9392505050565b600060608201905081810360008301526107a881866106f4565b90506107b760208301856106e5565b6107c4604083018461072d565b949350505050565b600060408201905081810360008301526107e681856106f4565b90506107f5602083018461072d565b9392505050565b6000602082019050610811600083018461072d565b92915050565b6000610821610832565b905061082d828261098f565b919050565b6000604051905090565b600067ffffffffffffffff82111561085757610856610a1e565b5b61086082610a4d565b9050602081019050919050565b600081519050919050565b600082825260208201905092915050565b600061089482610911565b915061089f83610911565b9250827fffffffffffffffffffffffffffffffffffffffffffffffffffffffffffffffff038211156108d4576108d36109c0565b5b828201905092915050565b60006108ea826108f1565b9050919050565b600073ffffffffffffffffffffffffffffffffffffffff82169050919050565b6000819050919050565b82818337600083830152505050565b60005b8381101561094857808201518184015260208101905061092d565b83811115610957576000848401525b50505050565b6000600282049050600182168061097557607f821691505b60208210811415610989576109886109ef565b5b50919050565b61099882610a4d565b810181811067ffffffffffffffff821117156109b7576109b6610a1e565b5b80604052505050565b7f4e487b7100000000000000000000000000000000000000000000000000000000600052601160045260246000fd5b7f4e487b7100000000000000000000000000000000000000000000000000000000600052602260045260246000fd5b7f4e487b7100000000000000000000000000000000000000000000000000000000600052604160045260246000fd5b6000601f19601f830116905091905056fea264697066735822122078dc49ed2e9156de1350f1a7731fb5c3b869c15541dee7a71e0db4b7d7a5db7a64736f6c63430008040033596f20796f2c204920616d206120636f6e747261637420616e64204920616d20736d617274",
  "linkReferences": {},
  "deployedLinkReferences": {}
}