{
  "_format": "hh-sol-artifact-1",
  "contractName": "WavePortal",
  "sourceName": "solidity/contracts/WavePortal.sol",
  "abi": [
    {
      "inputs": [],
      "stateMutability": "nonpayable",
      "type": "constructor"
    },
    {
      "anonymous": false,
      "inputs": [
        {
          "indexed": true,
          "internalType": "address",
          "name": "from",
          "type": "address"
        },
        {
          "indexed": false,
          "internalType": "uint256",
          "name": "timestamp",
          "type": "uint256"
        },
        {
          "indexed": false,
          "internalType": "string",
          "name": "message",
          "type": "string"
        }
      ],
      "name": "NewWave",
      "type": "event"
    },
    {
      "inputs": [],
      "name": "getAllWaves",
      "outputs": [
        {
          "components": [
            {
              "internalType": "string",
              "name": "text",
              "type": "string"
            },
            {
              "internalType": "address",
              "name": "from",
              "type": "address"
            },
            {
              "internalType": "uint256",
              "name": "datetime",
              "type": "uint256"
            }
          ],
          "internalType": "struct WavePortal.Message[]",
          "name": "",
          "type": "tuple[]"
        }
      ],
      "stateMutability": "view",
      "type": "function"
    },
    {
      "inputs": [],
      "name": "getTotalWaves",
      "outputs": [
        {
          "internalType": "uint256",
          "name": "",
          "type": "uint256"
        }
      ],
      "stateMutability": "view",
      "type": "function"
    },
    {
      "inputs": [
        {
          "internalType": "string",
          "name": "_newMessage",
          "type": "string"
        }
      ],
      "name": "sendWave",
      "outputs": [],
      "stateMutability": "nonpayable",
      "type": "function"
    }
  ],
  "bytecode": "0x60806040523480156200001157600080fd5b50620000416040518060600160405280602581526020016200100f602591396200004760201b620004c41760201c565b620001db565b620000e7816040516024016200005e919062000154565b6040516020818303038152906040527f41304fac000000000000000000000000000000000000000000000000000000007bffffffffffffffffffffffffffffffffffffffffffffffffffffffff19166020820180517bffffffffffffffffffffffffffffffffffffffffffffffffffffffff8381831617835250505050620000ea60201b60201c565b50565b60008151905060006a636f6e736f6c652e6c6f679050602083016000808483855afa5050505050565b6000620001208262000178565b6200012c818562000183565b93506200013e81856020860162000194565b6200014981620001ca565b840191505092915050565b6000602082019050818103600083015262000170818462000113565b905092915050565b600081519050919050565b600082825260208201905092915050565b60005b83811015620001b457808201518184015260208101905062000197565b83811115620001c4576000848401525b50505050565b6000601f19601f8301169050919050565b610e2480620001eb6000396000f3fe608060405234801561001057600080fd5b50600436106100415760003560e01c806337f0a2f1146100465780639a2cdc0814610062578063bd43a90814610080575b600080fd5b610060600480360381019061005b9190610868565b61009e565b005b61006a610328565b6040516100779190610b12565b60405180910390f35b610088610373565b6040516100959190610a30565b60405180910390f35b60016000808282546100b09190610c19565b925050819055506100f66040518060400160405280600d81526020017f25732068617320776176656421000000000000000000000000000000000000008152503361055d565b60018060003373ffffffffffffffffffffffffffffffffffffffff1673ffffffffffffffffffffffffffffffffffffffff16815260200190815260200160002060008282546101459190610c19565b925050819055506101cb6040518060400160405280601c81526020017f4e756d626572206f66207761766573206f66202561202573203e3e200000000081525033600160003373ffffffffffffffffffffffffffffffffffffffff1673ffffffffffffffffffffffffffffffffffffffff168152602001908152602001600020546105f9565b600260405180606001604052808381526020013373ffffffffffffffffffffffffffffffffffffffff168152602001428152509080600181540180825580915050600190039060005260206000209060030201600090919091909150600082015181600001908051906020019061024392919061075d565b5060208201518160010160006101000a81548173ffffffffffffffffffffffffffffffffffffffff021916908373ffffffffffffffffffffffffffffffffffffffff1602179055506040820151816002015550503373ffffffffffffffffffffffffffffffffffffffff167f5f7e16dc676677766a70e9c5628aa6c54ddb8b6e5188e2ae1e1f17f1ffbea71642836040516102df929190610b2d565b60405180910390a26103256040518060400160405280601381526020017f416c6c4d657373616765732075706461746564000000000000000000000000008152506104c4565b50565b600061036b6040518060400160405280601781526020017f5765206861766520256420746f74616c20776176657321000000000000000000815250600054610698565b600054905090565b60606002805480602002602001604051908101604052809291908181526020016000905b828210156104bb57838290600052602060002090600302016040518060600160405290816000820180546103ca90610ced565b80601f01602080910402602001604051908101604052809291908181526020018280546103f690610ced565b80156104435780601f1061041857610100808354040283529160200191610443565b820191906000526020600020905b81548152906001019060200180831161042657829003601f168201915b505050505081526020016001820160009054906101000a900473ffffffffffffffffffffffffffffffffffffffff1673ffffffffffffffffffffffffffffffffffffffff1673ffffffffffffffffffffffffffffffffffffffff16815260200160028201548152505081526020019060010190610397565b50505050905090565b61055a816040516024016104d89190610a52565b6040516020818303038152906040527f41304fac000000000000000000000000000000000000000000000000000000007bffffffffffffffffffffffffffffffffffffffffffffffffffffffff19166020820180517bffffffffffffffffffffffffffffffffffffffffffffffffffffffff8381831617835250505050610734565b50565b6105f58282604051602401610573929190610a74565b6040516020818303038152906040527f319af333000000000000000000000000000000000000000000000000000000007bffffffffffffffffffffffffffffffffffffffffffffffffffffffff19166020820180517bffffffffffffffffffffffffffffffffffffffffffffffffffffffff8381831617835250505050610734565b5050565b61069383838360405160240161061193929190610aa4565b6040516020818303038152906040527f07c81217000000000000000000000000000000000000000000000000000000007bffffffffffffffffffffffffffffffffffffffffffffffffffffffff19166020820180517bffffffffffffffffffffffffffffffffffffffffffffffffffffffff8381831617835250505050610734565b505050565b61073082826040516024016106ae929190610ae2565b6040516020818303038152906040527f9710a9d0000000000000000000000000000000000000000000000000000000007bffffffffffffffffffffffffffffffffffffffffffffffffffffffff19166020820180517bffffffffffffffffffffffffffffffffffffffffffffffffffffffff8381831617835250505050610734565b5050565b60008151905060006a636f6e736f6c652e6c6f679050602083016000808483855afa5050505050565b82805461076990610ced565b90600052602060002090601f01602090048101928261078b57600085556107d2565b82601f106107a457805160ff19168380011785556107d2565b828001600101855582156107d2579182015b828111156107d15782518255916020019190600101906107b6565b5b5090506107df91906107e3565b5090565b5b808211156107fc5760008160009055506001016107e4565b5090565b600061081361080e84610b82565b610b5d565b90508281526020810184848401111561082b57600080fd5b610836848285610cab565b509392505050565b600082601f83011261084f57600080fd5b813561085f848260208601610800565b91505092915050565b60006020828403121561087a57600080fd5b600082013567ffffffffffffffff81111561089457600080fd5b6108a08482850161083e565b91505092915050565b60006108b583836109c2565b905092915050565b6108c681610c6f565b82525050565b6108d581610c6f565b82525050565b60006108e682610bc3565b6108f08185610be6565b93508360208202850161090285610bb3565b8060005b8581101561093e578484038952815161091f85826108a9565b945061092a83610bd9565b925060208a01995050600181019050610906565b50829750879550505050505092915050565b600061095b82610bce565b6109658185610bf7565b9350610975818560208601610cba565b61097e81610ddd565b840191505092915050565b600061099482610bce565b61099e8185610c08565b93506109ae818560208601610cba565b6109b781610ddd565b840191505092915050565b600060608301600083015184820360008601526109df8282610950565b91505060208301516109f460208601826108bd565b506040830151610a076040860182610a12565b508091505092915050565b610a1b81610ca1565b82525050565b610a2a81610ca1565b82525050565b60006020820190508181036000830152610a4a81846108db565b905092915050565b60006020820190508181036000830152610a6c8184610989565b905092915050565b60006040820190508181036000830152610a8e8185610989565b9050610a9d60208301846108cc565b9392505050565b60006060820190508181036000830152610abe8186610989565b9050610acd60208301856108cc565b610ada6040830184610a21565b949350505050565b60006040820190508181036000830152610afc8185610989565b9050610b0b6020830184610a21565b9392505050565b6000602082019050610b276000830184610a21565b92915050565b6000604082019050610b426000830185610a21565b8181036020830152610b548184610989565b90509392505050565b6000610b67610b78565b9050610b738282610d1f565b919050565b6000604051905090565b600067ffffffffffffffff821115610b9d57610b9c610dae565b5b610ba682610ddd565b9050602081019050919050565b6000819050602082019050919050565b600081519050919050565b600081519050919050565b6000602082019050919050565b600082825260208201905092915050565b600082825260208201905092915050565b600082825260208201905092915050565b6000610c2482610ca1565b9150610c2f83610ca1565b9250827fffffffffffffffffffffffffffffffffffffffffffffffffffffffffffffffff03821115610c6457610c63610d50565b5b828201905092915050565b6000610c7a82610c81565b9050919050565b600073ffffffffffffffffffffffffffffffffffffffff82169050919050565b6000819050919050565b82818337600083830152505050565b60005b83811015610cd8578082015181840152602081019050610cbd565b83811115610ce7576000848401525b50505050565b60006002820490506001821680610d0557607f821691505b60208210811415610d1957610d18610d7f565b5b50919050565b610d2882610ddd565b810181811067ffffffffffffffff82111715610d4757610d46610dae565b5b80604052505050565b7f4e487b7100000000000000000000000000000000000000000000000000000000600052601160045260246000fd5b7f4e487b7100000000000000000000000000000000000000000000000000000000600052602260045260246000fd5b7f4e487b7100000000000000000000000000000000000000000000000000000000600052604160045260246000fd5b6000601f19601f830116905091905056fea2646970667358221220042dc97a4dc1086b9c6728f1f8b0857904263016e1416bd9661393505a1038ce64736f6c63430008040033596f20796f2c204920616d206120636f6e747261637420616e64204920616d20736d617274",
  "linkReferences": {},
  "deployedLinkReferences": {}
}