{
  "_format": "hh-sol-artifact-1",
  "contractName": "WavePortal",
  "sourceName": "solidity/contracts/WavePortal.sol",
  "abi": [
    {
      "inputs": [],
      "stateMutability": "payable",
      "type": "constructor"
    },
    {
      "anonymous": false,
      "inputs": [
        {
          "indexed": false,
          "internalType": "bool",
          "name": "isWinner",
          "type": "bool"
        }
      ],
      "name": "LotteryEvent",
      "type": "event"
    },
    {
      "anonymous": false,
      "inputs": [
        {
          "indexed": true,
          "internalType": "address",
          "name": "from",
          "type": "address"
        },
        {
          "indexed": false,
          "internalType": "uint256",
          "name": "timestamp",
          "type": "uint256"
        },
        {
          "indexed": false,
          "internalType": "string",
          "name": "message",
          "type": "string"
        }
      ],
      "name": "NewWave",
      "type": "event"
    },
    {
      "inputs": [],
      "name": "getAllWaves",
      "outputs": [
        {
          "components": [
            {
              "internalType": "string",
              "name": "text",
              "type": "string"
            },
            {
              "internalType": "address",
              "name": "from",
              "type": "address"
            },
            {
              "internalType": "uint256",
              "name": "datetime",
              "type": "uint256"
            }
          ],
          "internalType": "struct WavePortal.Message[]",
          "name": "",
          "type": "tuple[]"
        }
      ],
      "stateMutability": "view",
      "type": "function"
    },
    {
      "inputs": [],
      "name": "getPrize",
      "outputs": [
        {
          "internalType": "uint256",
          "name": "",
          "type": "uint256"
        }
      ],
      "stateMutability": "view",
      "type": "function"
    },
    {
      "inputs": [],
      "name": "getTotalWaves",
      "outputs": [
        {
          "internalType": "uint256",
          "name": "",
          "type": "uint256"
        }
      ],
      "stateMutability": "view",
      "type": "function"
    },
    {
      "inputs": [
        {
          "internalType": "uint256",
          "name": "_number",
          "type": "uint256"
        }
      ],
      "name": "playLottery",
      "outputs": [],
      "stateMutability": "payable",
      "type": "function"
    },
    {
      "inputs": [
        {
          "internalType": "string",
          "name": "_newMessage",
          "type": "string"
        }
      ],
      "name": "sendWave",
      "outputs": [],
      "stateMutability": "nonpayable",
      "type": "function"
    }
  ],
  "bytecode": "0x6080604052655af3107a40006004556200003d60405180606001604052806025815260200162001830602591396200009960201b6200080c1760201c565b6021600381905550620000936040518060400160405280601781526020017f54686520736563726574206e756d6265722069732025730000000000000000008152506003546200013c60201b620008a51760201c565b62000322565b6200013981604051602401620000b091906200025d565b6040516020818303038152906040527f41304fac000000000000000000000000000000000000000000000000000000007bffffffffffffffffffffffffffffffffffffffffffffffffffffffff19166020820180517bffffffffffffffffffffffffffffffffffffffffffffffffffffffff8381831617835250505050620001e260201b60201c565b50565b620001de82826040516024016200015592919062000281565b6040516020818303038152906040527f9710a9d0000000000000000000000000000000000000000000000000000000007bffffffffffffffffffffffffffffffffffffffffffffffffffffffff19166020820180517bffffffffffffffffffffffffffffffffffffffffffffffffffffffff8381831617835250505050620001e260201b60201c565b5050565b60008151905060006a636f6e736f6c652e6c6f679050602083016000808483855afa5050505050565b60006200021882620002b5565b620002248185620002c0565b935062000236818560208601620002db565b620002418162000311565b840191505092915050565b6200025781620002d1565b82525050565b600060208201905081810360008301526200027981846200020b565b905092915050565b600060408201905081810360008301526200029d81856200020b565b9050620002ae60208301846200024c565b9392505050565b600081519050919050565b600082825260208201905092915050565b6000819050919050565b60005b83811015620002fb578082015181840152602081019050620002de565b838111156200030b576000848401525b50505050565b6000601f19601f8301169050919050565b6114fe80620003326000396000f3fe60806040526004361061004a5760003560e01c806303ddcab81461004f57806337f0a2f11461006b5780639a2cdc0814610094578063bd43a908146100bf578063c34f6b0d146100ea575b600080fd5b61006960048036038101906100649190610d35565b610115565b005b34801561007757600080fd5b50610092600480360381019061008d9190610cf4565b6103de565b005b3480156100a057600080fd5b506100a9610668565b6040516100b691906110ce565b60405180910390f35b3480156100cb57600080fd5b506100d46106b3565b6040516100e19190610f81565b60405180910390f35b3480156100f657600080fd5b506100ff610804565b60405161010c91906110ce565b60405180910390f35b6101546040518060400160405280601381526020017f43757272656e742062616c616e63652069732000000000000000000000000000815250476108a5565b600454341015610199576040517f08c379a0000000000000000000000000000000000000000000000000000000008152600401610190906110ae565b60405180910390fd5b6003548114610219576101e06040518060400160405280600681526020017f4f6868686868000000000000000000000000000000000000000000000000000081525061080c565b7f1f00a824ca850def568468d1fd563059599c7e973d9fa0ff6859ee0896d1631160006040516102109190610fa3565b60405180910390a15b6003548114156103db577f1f00a824ca850def568468d1fd563059599c7e973d9fa0ff6859ee0896d1631160016040516102539190610fa3565b60405180910390a16102996040518060400160405280600c81526020017f57494e4e4545454552525252000000000000000000000000000000000000000081525061080c565b60003373ffffffffffffffffffffffffffffffffffffffff16476040516102bf90610f51565b60006040518083038185875af1925050503d80600081146102fc576040519150601f19603f3d011682016040523d82523d6000602084013e610301565b606091505b505090506103446040518060400160405280600a81526020017f737563636573732025730000000000000000000000000000000000000000000081525082610941565b80156103d9576103526109dd565b6003819055506103976040518060400160405280601581526020017f42616c616e63652061667465722077696e206973200000000000000000000000815250476108a5565b6103d86040518060400160405280601781526020017f54686520736563726574206e756d6265722069732025730000000000000000008152506003546108a5565b5b505b50565b60016000808282546103f091906111e0565b925050819055506104366040518060400160405280600d81526020017f257320686173207761766564210000000000000000000000000000000000000081525033610a70565b60018060003373ffffffffffffffffffffffffffffffffffffffff1673ffffffffffffffffffffffffffffffffffffffff168152602001908152602001600020600082825461048591906111e0565b9250508190555061050b6040518060400160405280601c81526020017f4e756d626572206f66207761766573206f66202561202573203e3e200000000081525033600160003373ffffffffffffffffffffffffffffffffffffffff1673ffffffffffffffffffffffffffffffffffffffff16815260200190815260200160002054610b0c565b600260405180606001604052808381526020013373ffffffffffffffffffffffffffffffffffffffff1681526020014281525090806001815401808255809150506001900390600052602060002090600302016000909190919091506000820151816000019080519060200190610583929190610bd4565b5060208201518160010160006101000a81548173ffffffffffffffffffffffffffffffffffffffff021916908373ffffffffffffffffffffffffffffffffffffffff1602179055506040820151816002015550503373ffffffffffffffffffffffffffffffffffffffff167f5f7e16dc676677766a70e9c5628aa6c54ddb8b6e5188e2ae1e1f17f1ffbea716428360405161061f9291906110e9565b60405180910390a26106656040518060400160405280601381526020017f416c6c4d6573736167657320757064617465640000000000000000000000000081525061080c565b50565b60006106ab6040518060400160405280601781526020017f5765206861766520256420746f74616c207761766573210000000000000000008152506000546108a5565b600054905090565b60606002805480602002602001604051908101604052809291908181526020016000905b828210156107fb578382906000526020600020906003020160405180606001604052908160008201805461070a9061131a565b80601f01602080910402602001604051908101604052809291908181526020018280546107369061131a565b80156107835780601f1061075857610100808354040283529160200191610783565b820191906000526020600020905b81548152906001019060200180831161076657829003601f168201915b505050505081526020016001820160009054906101000a900473ffffffffffffffffffffffffffffffffffffffff1673ffffffffffffffffffffffffffffffffffffffff1673ffffffffffffffffffffffffffffffffffffffff168152602001600282015481525050815260200190600101906106d7565b50505050905090565b600047905090565b6108a2816040516024016108209190610fbe565b6040516020818303038152906040527f41304fac000000000000000000000000000000000000000000000000000000007bffffffffffffffffffffffffffffffffffffffffffffffffffffffff19166020820180517bffffffffffffffffffffffffffffffffffffffffffffffffffffffff8381831617835250505050610bab565b50565b61093d82826040516024016108bb92919061107e565b6040516020818303038152906040527f9710a9d0000000000000000000000000000000000000000000000000000000007bffffffffffffffffffffffffffffffffffffffffffffffffffffffff19166020820180517bffffffffffffffffffffffffffffffffffffffffffffffffffffffff8381831617835250505050610bab565b5050565b6109d9828260405160240161095792919061104e565b6040516020818303038152906040527fc3b55635000000000000000000000000000000000000000000000000000000007bffffffffffffffffffffffffffffffffffffffffffffffffffffffff19166020820180517bffffffffffffffffffffffffffffffffffffffffffffffffffffffff8381831617835250505050610bab565b5050565b600080426040516020016109f19190610f66565b6040516020818303038152906040528051906020012060001c9050600044604051602001610a1f9190610f66565b6040516020818303038152906040528051906020012060001c905060648082610a489190611387565b606484610a559190611387565b610a5f9190611236565b610a699190611387565b9250505090565b610b088282604051602401610a86929190610fe0565b6040516020818303038152906040527f319af333000000000000000000000000000000000000000000000000000000007bffffffffffffffffffffffffffffffffffffffffffffffffffffffff19166020820180517bffffffffffffffffffffffffffffffffffffffffffffffffffffffff8381831617835250505050610bab565b5050565b610ba6838383604051602401610b2493929190611010565b6040516020818303038152906040527f07c81217000000000000000000000000000000000000000000000000000000007bffffffffffffffffffffffffffffffffffffffffffffffffffffffff19166020820180517bffffffffffffffffffffffffffffffffffffffffffffffffffffffff8381831617835250505050610bab565b505050565b60008151905060006a636f6e736f6c652e6c6f679050602083016000808483855afa5050505050565b828054610be09061131a565b90600052602060002090601f016020900481019282610c025760008555610c49565b82601f10610c1b57805160ff1916838001178555610c49565b82800160010185558215610c49579182015b82811115610c48578251825591602001919060010190610c2d565b5b509050610c569190610c5a565b5090565b5b80821115610c73576000816000905550600101610c5b565b5090565b6000610c8a610c858461113e565b611119565b905082815260208101848484011115610ca257600080fd5b610cad8482856112d8565b509392505050565b600082601f830112610cc657600080fd5b8135610cd6848260208601610c77565b91505092915050565b600081359050610cee816114b1565b92915050565b600060208284031215610d0657600080fd5b600082013567ffffffffffffffff811115610d2057600080fd5b610d2c84828501610cb5565b91505092915050565b600060208284031215610d4757600080fd5b6000610d5584828501610cdf565b91505092915050565b6000610d6a8383610ecc565b905092915050565b610d7b81611290565b82525050565b610d8a81611290565b82525050565b6000610d9b8261117f565b610da581856111a2565b935083602082028501610db78561116f565b8060005b85811015610df35784840389528151610dd48582610d5e565b9450610ddf83611195565b925060208a01995050600181019050610dbb565b50829750879550505050505092915050565b610e0e816112a2565b82525050565b6000610e1f8261118a565b610e2981856111be565b9350610e398185602086016112e7565b610e4281611474565b840191505092915050565b6000610e588261118a565b610e6281856111cf565b9350610e728185602086016112e7565b610e7b81611474565b840191505092915050565b6000610e93601c836111cf565b9150610e9e82611485565b602082019050919050565b6000610eb66000836111b3565b9150610ec1826114ae565b600082019050919050565b60006060830160008301518482036000860152610ee98282610e14565b9150506020830151610efe6020860182610d72565b506040830151610f116040860182610f1c565b508091505092915050565b610f25816112ce565b82525050565b610f34816112ce565b82525050565b610f4b610f46826112ce565b61137d565b82525050565b6000610f5c82610ea9565b9150819050919050565b6000610f728284610f3a565b60208201915081905092915050565b60006020820190508181036000830152610f9b8184610d90565b905092915050565b6000602082019050610fb86000830184610e05565b92915050565b60006020820190508181036000830152610fd88184610e4d565b905092915050565b60006040820190508181036000830152610ffa8185610e4d565b90506110096020830184610d81565b9392505050565b6000606082019050818103600083015261102a8186610e4d565b90506110396020830185610d81565b6110466040830184610f2b565b949350505050565b600060408201905081810360008301526110688185610e4d565b90506110776020830184610e05565b9392505050565b600060408201905081810360008301526110988185610e4d565b90506110a76020830184610f2b565b9392505050565b600060208201905081810360008301526110c781610e86565b9050919050565b60006020820190506110e36000830184610f2b565b92915050565b60006040820190506110fe6000830185610f2b565b81810360208301526111108184610e4d565b90509392505050565b6000611123611134565b905061112f828261134c565b919050565b6000604051905090565b600067ffffffffffffffff82111561115957611158611445565b5b61116282611474565b9050602081019050919050565b6000819050602082019050919050565b600081519050919050565b600081519050919050565b6000602082019050919050565b600082825260208201905092915050565b600081905092915050565b600082825260208201905092915050565b600082825260208201905092915050565b60006111eb826112ce565b91506111f6836112ce565b9250827fffffffffffffffffffffffffffffffffffffffffffffffffffffffffffffffff0382111561122b5761122a6113b8565b5b828201905092915050565b6000611241826112ce565b915061124c836112ce565b9250817fffffffffffffffffffffffffffffffffffffffffffffffffffffffffffffffff0483118215151615611285576112846113b8565b5b828202905092915050565b600061129b826112ae565b9050919050565b60008115159050919050565b600073ffffffffffffffffffffffffffffffffffffffff82169050919050565b6000819050919050565b82818337600083830152505050565b60005b838110156113055780820151818401526020810190506112ea565b83811115611314576000848401525b50505050565b6000600282049050600182168061133257607f821691505b6020821081141561134657611345611416565b5b50919050565b61135582611474565b810181811067ffffffffffffffff8211171561137457611373611445565b5b80604052505050565b6000819050919050565b6000611392826112ce565b915061139d836112ce565b9250826113ad576113ac6113e7565b5b828206905092915050565b7f4e487b7100000000000000000000000000000000000000000000000000000000600052601160045260246000fd5b7f4e487b7100000000000000000000000000000000000000000000000000000000600052601260045260246000fd5b7f4e487b7100000000000000000000000000000000000000000000000000000000600052602260045260246000fd5b7f4e487b7100000000000000000000000000000000000000000000000000000000600052604160045260246000fd5b6000601f19601f8301169050919050565b7f4d696e696d756d2076616c756520697320302e30303031204554482100000000600082015250565b50565b6114ba816112ce565b81146114c557600080fd5b5056fea2646970667358221220d41cb1d5b83d91ff1a096a1a3cdef17f685385fbdb0e095097b4e07010b0235e64736f6c63430008040033596f20796f2c204920616d206120636f6e747261637420616e64204920616d20736d617274",
  "linkReferences": {},
  "deployedLinkReferences": {}
}